{
  "_format": "hh-sol-artifact-1",
  "contractName": "Atlantis",
  "sourceName": "contracts/AtlantisToken.sol",
  "abi": [
    {
      "inputs": [],
      "stateMutability": "nonpayable",
      "type": "constructor"
    },
    {
      "inputs": [],
      "name": "NotDistributionContractAddress",
      "type": "error"
    },
    {
      "inputs": [],
      "name": "NotServiceContractAddress",
      "type": "error"
    },
    {
      "anonymous": false,
      "inputs": [
        {
          "indexed": true,
          "internalType": "address",
          "name": "owner",
          "type": "address"
        },
        {
          "indexed": true,
          "internalType": "address",
          "name": "spender",
          "type": "address"
        },
        {
          "indexed": false,
          "internalType": "uint256",
          "name": "value",
          "type": "uint256"
        }
      ],
      "name": "Approval",
      "type": "event"
    },
    {
      "anonymous": false,
      "inputs": [
        {
          "indexed": true,
          "internalType": "address",
          "name": "previousOwner",
          "type": "address"
        },
        {
          "indexed": true,
          "internalType": "address",
          "name": "newOwner",
          "type": "address"
        }
      ],
      "name": "OwnershipTransferred",
      "type": "event"
    },
    {
      "anonymous": false,
      "inputs": [
        {
          "indexed": true,
          "internalType": "address",
          "name": "admin",
          "type": "address"
        },
        {
          "indexed": false,
          "internalType": "address",
          "name": "contractAddress",
          "type": "address"
        }
      ],
      "name": "SetDistributorContractAddress",
      "type": "event"
    },
    {
      "anonymous": false,
      "inputs": [
        {
          "indexed": true,
          "internalType": "address",
          "name": "admin",
          "type": "address"
        },
        {
          "indexed": false,
          "internalType": "address",
          "name": "contractAddress",
          "type": "address"
        }
      ],
      "name": "SetServiceContractAddress",
      "type": "event"
    },
    {
      "anonymous": false,
      "inputs": [
        {
          "indexed": true,
          "internalType": "address",
          "name": "from",
          "type": "address"
        },
        {
          "indexed": true,
          "internalType": "address",
          "name": "to",
          "type": "address"
        },
        {
          "indexed": false,
          "internalType": "uint256",
          "name": "value",
          "type": "uint256"
        }
      ],
      "name": "Transfer",
      "type": "event"
    },
    {
      "inputs": [
        {
          "internalType": "address",
          "name": "owner",
          "type": "address"
        },
        {
          "internalType": "address",
          "name": "spender",
          "type": "address"
        }
      ],
      "name": "allowance",
      "outputs": [
        {
          "internalType": "uint256",
          "name": "",
          "type": "uint256"
        }
      ],
      "stateMutability": "view",
      "type": "function"
    },
    {
      "inputs": [
        {
          "internalType": "address",
          "name": "spender",
          "type": "address"
        },
        {
          "internalType": "uint256",
          "name": "amount",
          "type": "uint256"
        }
      ],
      "name": "approve",
      "outputs": [
        {
          "internalType": "bool",
          "name": "",
          "type": "bool"
        }
      ],
      "stateMutability": "nonpayable",
      "type": "function"
    },
    {
      "inputs": [
        {
          "internalType": "address",
          "name": "account",
          "type": "address"
        }
      ],
      "name": "balanceOf",
      "outputs": [
        {
          "internalType": "uint256",
          "name": "",
          "type": "uint256"
        }
      ],
      "stateMutability": "view",
      "type": "function"
    },
    {
      "inputs": [
        {
          "internalType": "uint256",
          "name": "_amount",
          "type": "uint256"
        }
      ],
      "name": "burn",
      "outputs": [],
      "stateMutability": "nonpayable",
      "type": "function"
    },
    {
      "inputs": [],
      "name": "decimals",
      "outputs": [
        {
          "internalType": "uint8",
          "name": "",
          "type": "uint8"
        }
      ],
      "stateMutability": "view",
      "type": "function"
    },
    {
      "inputs": [
        {
          "internalType": "address",
          "name": "spender",
          "type": "address"
        },
        {
          "internalType": "uint256",
          "name": "subtractedValue",
          "type": "uint256"
        }
      ],
      "name": "decreaseAllowance",
      "outputs": [
        {
          "internalType": "bool",
          "name": "",
          "type": "bool"
        }
      ],
      "stateMutability": "nonpayable",
      "type": "function"
    },
    {
      "inputs": [],
      "name": "distributorContract",
      "outputs": [
        {
          "internalType": "address",
          "name": "",
          "type": "address"
        }
      ],
      "stateMutability": "view",
      "type": "function"
    },
    {
      "inputs": [
        {
          "internalType": "address",
          "name": "spender",
          "type": "address"
        },
        {
          "internalType": "uint256",
          "name": "addedValue",
          "type": "uint256"
        }
      ],
      "name": "increaseAllowance",
      "outputs": [
        {
          "internalType": "bool",
          "name": "",
          "type": "bool"
        }
      ],
      "stateMutability": "nonpayable",
      "type": "function"
    },
    {
      "inputs": [
        {
          "internalType": "address",
          "name": "_account",
          "type": "address"
        },
        {
          "internalType": "uint256",
          "name": "_amount",
          "type": "uint256"
        }
      ],
      "name": "mint",
      "outputs": [],
      "stateMutability": "nonpayable",
      "type": "function"
    },
    {
      "inputs": [],
      "name": "name",
      "outputs": [
        {
          "internalType": "string",
          "name": "",
          "type": "string"
        }
      ],
      "stateMutability": "view",
      "type": "function"
    },
    {
      "inputs": [],
      "name": "owner",
      "outputs": [
        {
          "internalType": "address",
          "name": "",
          "type": "address"
        }
      ],
      "stateMutability": "view",
      "type": "function"
    },
    {
      "inputs": [],
      "name": "renounceOwnership",
      "outputs": [],
      "stateMutability": "nonpayable",
      "type": "function"
    },
    {
      "inputs": [],
      "name": "serviceContract",
      "outputs": [
        {
          "internalType": "address",
          "name": "",
          "type": "address"
        }
      ],
      "stateMutability": "view",
      "type": "function"
    },
    {
      "inputs": [
        {
          "internalType": "address",
          "name": "_distributorContract",
          "type": "address"
        }
      ],
      "name": "setDistributorContractAddress",
      "outputs": [],
      "stateMutability": "nonpayable",
      "type": "function"
    },
    {
      "inputs": [
        {
          "internalType": "address",
          "name": "_serviceContract",
          "type": "address"
        }
      ],
      "name": "setServiceContractAddress",
      "outputs": [],
      "stateMutability": "nonpayable",
      "type": "function"
    },
    {
      "inputs": [],
      "name": "symbol",
      "outputs": [
        {
          "internalType": "string",
          "name": "",
          "type": "string"
        }
      ],
      "stateMutability": "view",
      "type": "function"
    },
    {
      "inputs": [],
      "name": "totalMinted",
      "outputs": [
        {
          "internalType": "uint256",
          "name": "",
          "type": "uint256"
        }
      ],
      "stateMutability": "view",
      "type": "function"
    },
    {
      "inputs": [],
      "name": "totalSupply",
      "outputs": [
        {
          "internalType": "uint256",
          "name": "",
          "type": "uint256"
        }
      ],
      "stateMutability": "view",
      "type": "function"
    },
    {
      "inputs": [
        {
          "internalType": "address",
          "name": "to",
          "type": "address"
        },
        {
          "internalType": "uint256",
          "name": "amount",
          "type": "uint256"
        }
      ],
      "name": "transfer",
      "outputs": [
        {
          "internalType": "bool",
          "name": "",
          "type": "bool"
        }
      ],
      "stateMutability": "nonpayable",
      "type": "function"
    },
    {
      "inputs": [
        {
          "internalType": "address",
          "name": "from",
          "type": "address"
        },
        {
          "internalType": "address",
          "name": "to",
          "type": "address"
        },
        {
          "internalType": "uint256",
          "name": "amount",
          "type": "uint256"
        }
      ],
      "name": "transferFrom",
      "outputs": [
        {
          "internalType": "bool",
          "name": "",
          "type": "bool"
        }
      ],
      "stateMutability": "nonpayable",
      "type": "function"
    },
    {
      "inputs": [
        {
          "internalType": "address",
          "name": "newOwner",
          "type": "address"
        }
      ],
      "name": "transferOwnership",
      "outputs": [],
      "stateMutability": "nonpayable",
      "type": "function"
    }
  ],
  "bytecode": "0x60806040523480156200001157600080fd5b506040518060400160405280600881526020017f41746c616e7469730000000000000000000000000000000000000000000000008152506040518060400160405280600381526020017f414c540000000000000000000000000000000000000000000000000000000000815250816003908051906020019062000096929190620001a6565b508060049080519060200190620000af929190620001a6565b505050620000d2620000c6620000d860201b60201c565b620000e060201b60201c565b620002bb565b600033905090565b6000600560009054906101000a900473ffffffffffffffffffffffffffffffffffffffff16905081600560006101000a81548173ffffffffffffffffffffffffffffffffffffffff021916908373ffffffffffffffffffffffffffffffffffffffff1602179055508173ffffffffffffffffffffffffffffffffffffffff168173ffffffffffffffffffffffffffffffffffffffff167f8be0079c531659141344cd1fd0a4f28419497f9722a3daafe3b4186f6b6457e060405160405180910390a35050565b828054620001b49062000256565b90600052602060002090601f016020900481019282620001d8576000855562000224565b82601f10620001f357805160ff191683800117855562000224565b8280016001018555821562000224579182015b828111156200022357825182559160200191906001019062000206565b5b50905062000233919062000237565b5090565b5b808211156200025257600081600090555060010162000238565b5090565b600060028204905060018216806200026f57607f821691505b602082108114156200028657620002856200028c565b5b50919050565b7f4e487b7100000000000000000000000000000000000000000000000000000000600052602260045260246000fd5b6120ba80620002cb6000396000f3fe608060405234801561001057600080fd5b50600436106101375760003560e01c806342966c68116100b8578063a2309ff81161007c578063a2309ff81461032c578063a457c2d71461034a578063a9059cbb1461037a578063dd62ed3e146103aa578063f2fde38b146103da578063ff13f6be146103f657610137565b806342966c681461029a57806370a08231146102b6578063715018a6146102e65780638da5cb5b146102f057806395d89b411461030e57610137565b806324fab44d116100ff57806324fab44d146101f6578063313ce56714610212578063364dab1014610230578063395093511461024e57806340c10f191461027e57610137565b806306fdde031461013c578063095ea7b31461015a57806318160ddd1461018a578063222b9e3f146101a857806323b872dd146101c6575b600080fd5b610144610412565b604051610151919061196d565b60405180910390f35b610174600480360381019061016f91906116b9565b6104a4565b6040516101819190611952565b60405180910390f35b6101926104c7565b60405161019f9190611b0f565b60405180910390f35b6101b06104d1565b6040516101bd9190611937565b60405180910390f35b6101e060048036038101906101db919061166a565b6104f7565b6040516101ed9190611952565b60405180910390f35b610210600480360381019061020b9190611605565b610526565b005b61021a610634565b6040516102279190611b2a565b60405180910390f35b61023861063d565b6040516102459190611937565b60405180910390f35b610268600480360381019061026391906116b9565b610663565b6040516102759190611952565b60405180910390f35b610298600480360381019061029391906116b9565b61070d565b005b6102b460048036038101906102af91906116f5565b610734565b005b6102d060048036038101906102cb9190611605565b6107c8565b6040516102dd9190611b0f565b60405180910390f35b6102ee610810565b005b6102f8610898565b6040516103059190611937565b60405180910390f35b6103166108c2565b604051610323919061196d565b60405180910390f35b610334610954565b6040516103419190611b0f565b60405180910390f35b610364600480360381019061035f91906116b9565b61095a565b6040516103719190611952565b60405180910390f35b610394600480360381019061038f91906116b9565b610a44565b6040516103a19190611952565b60405180910390f35b6103c460048036038101906103bf919061162e565b610a67565b6040516103d19190611b0f565b60405180910390f35b6103f460048036038101906103ef9190611605565b610aee565b005b610410600480360381019061040b9190611605565b610be6565b005b60606003805461042190611c73565b80601f016020809104026020016040519081016040528092919081815260200182805461044d90611c73565b801561049a5780601f1061046f5761010080835404028352916020019161049a565b820191906000526020600020905b81548152906001019060200180831161047d57829003601f168201915b5050505050905090565b6000806104af610cf4565b90506104bc818585610cfc565b600191505092915050565b6000600254905090565b600660009054906101000a900473ffffffffffffffffffffffffffffffffffffffff1681565b600080610502610cf4565b905061050f858285610ec7565b61051a858585610f53565b60019150509392505050565b61052e610cf4565b73ffffffffffffffffffffffffffffffffffffffff1661054c610898565b73ffffffffffffffffffffffffffffffffffffffff16146105a2576040517f08c379a000000000000000000000000000000000000000000000000000000000815260040161059990611a4f565b60405180910390fd5b80600660006101000a81548173ffffffffffffffffffffffffffffffffffffffff021916908373ffffffffffffffffffffffffffffffffffffffff1602179055503373ffffffffffffffffffffffffffffffffffffffff167fcd5cd5482e7ba385014cf5720b191f93bd9976fae0c9d148bc8416d27c57a18c826040516106299190611937565b60405180910390a250565b60006012905090565b600860009054906101000a900473ffffffffffffffffffffffffffffffffffffffff1681565b60008061066e610cf4565b9050610702818585600160008673ffffffffffffffffffffffffffffffffffffffff1673ffffffffffffffffffffffffffffffffffffffff16815260200190815260200160002060008973ffffffffffffffffffffffffffffffffffffffff1673ffffffffffffffffffffffffffffffffffffffff168152602001908152602001600020546106fd9190611b61565b610cfc565b600191505092915050565b806007600082825461071f9190611b61565b9250508190555061073082826111d4565b5050565b3373ffffffffffffffffffffffffffffffffffffffff16600860009054906101000a900473ffffffffffffffffffffffffffffffffffffffff1673ffffffffffffffffffffffffffffffffffffffff16146107bb576040517f6dd0b1d300000000000000000000000000000000000000000000000000000000815260040160405180910390fd5b6107c53382611334565b50565b60008060008373ffffffffffffffffffffffffffffffffffffffff1673ffffffffffffffffffffffffffffffffffffffff168152602001908152602001600020549050919050565b610818610cf4565b73ffffffffffffffffffffffffffffffffffffffff16610836610898565b73ffffffffffffffffffffffffffffffffffffffff161461088c576040517f08c379a000000000000000000000000000000000000000000000000000000000815260040161088390611a4f565b60405180910390fd5b610896600061150b565b565b6000600560009054906101000a900473ffffffffffffffffffffffffffffffffffffffff16905090565b6060600480546108d190611c73565b80601f01602080910402602001604051908101604052809291908181526020018280546108fd90611c73565b801561094a5780601f1061091f5761010080835404028352916020019161094a565b820191906000526020600020905b81548152906001019060200180831161092d57829003601f168201915b5050505050905090565b60075481565b600080610965610cf4565b90506000600160008373ffffffffffffffffffffffffffffffffffffffff1673ffffffffffffffffffffffffffffffffffffffff16815260200190815260200160002060008673ffffffffffffffffffffffffffffffffffffffff1673ffffffffffffffffffffffffffffffffffffffff16815260200190815260200160002054905083811015610a2b576040517f08c379a0000000000000000000000000000000000000000000000000000000008152600401610a2290611acf565b60405180910390fd5b610a388286868403610cfc565b60019250505092915050565b600080610a4f610cf4565b9050610a5c818585610f53565b600191505092915050565b6000600160008473ffffffffffffffffffffffffffffffffffffffff1673ffffffffffffffffffffffffffffffffffffffff16815260200190815260200160002060008373ffffffffffffffffffffffffffffffffffffffff1673ffffffffffffffffffffffffffffffffffffffff16815260200190815260200160002054905092915050565b610af6610cf4565b73ffffffffffffffffffffffffffffffffffffffff16610b14610898565b73ffffffffffffffffffffffffffffffffffffffff1614610b6a576040517f08c379a0000000000000000000000000000000000000000000000000000000008152600401610b6190611a4f565b60405180910390fd5b600073ffffffffffffffffffffffffffffffffffffffff168173ffffffffffffffffffffffffffffffffffffffff161415610bda576040517f08c379a0000000000000000000000000000000000000000000000000000000008152600401610bd1906119cf565b60405180910390fd5b610be38161150b565b50565b610bee610cf4565b73ffffffffffffffffffffffffffffffffffffffff16610c0c610898565b73ffffffffffffffffffffffffffffffffffffffff1614610c62576040517f08c379a0000000000000000000000000000000000000000000000000000000008152600401610c5990611a4f565b60405180910390fd5b80600860006101000a81548173ffffffffffffffffffffffffffffffffffffffff021916908373ffffffffffffffffffffffffffffffffffffffff1602179055503373ffffffffffffffffffffffffffffffffffffffff167fb8b6bc0ceaa132316e34dfd4977c6c4cdb07b8ea79ea34111717f8e361c35d2682604051610ce99190611937565b60405180910390a250565b600033905090565b600073ffffffffffffffffffffffffffffffffffffffff168373ffffffffffffffffffffffffffffffffffffffff161415610d6c576040517f08c379a0000000000000000000000000000000000000000000000000000000008152600401610d6390611aaf565b60405180910390fd5b600073ffffffffffffffffffffffffffffffffffffffff168273ffffffffffffffffffffffffffffffffffffffff161415610ddc576040517f08c379a0000000000000000000000000000000000000000000000000000000008152600401610dd3906119ef565b60405180910390fd5b80600160008573ffffffffffffffffffffffffffffffffffffffff1673ffffffffffffffffffffffffffffffffffffffff16815260200190815260200160002060008473ffffffffffffffffffffffffffffffffffffffff1673ffffffffffffffffffffffffffffffffffffffff168152602001908152602001600020819055508173ffffffffffffffffffffffffffffffffffffffff168373ffffffffffffffffffffffffffffffffffffffff167f8c5be1e5ebec7d5bd14f71427d1e84f3dd0314c0f7b2291e5b200ac8c7c3b92583604051610eba9190611b0f565b60405180910390a3505050565b6000610ed38484610a67565b90507fffffffffffffffffffffffffffffffffffffffffffffffffffffffffffffffff8114610f4d5781811015610f3f576040517f08c379a0000000000000000000000000000000000000000000000000000000008152600401610f3690611a0f565b60405180910390fd5b610f4c8484848403610cfc565b5b50505050565b600073ffffffffffffffffffffffffffffffffffffffff168373ffffffffffffffffffffffffffffffffffffffff161415610fc3576040517f08c379a0000000000000000000000000000000000000000000000000000000008152600401610fba90611a8f565b60405180910390fd5b600073ffffffffffffffffffffffffffffffffffffffff168273ffffffffffffffffffffffffffffffffffffffff161415611033576040517f08c379a000000000000000000000000000000000000000000000000000000000815260040161102a9061198f565b60405180910390fd5b61103e8383836115d1565b60008060008573ffffffffffffffffffffffffffffffffffffffff1673ffffffffffffffffffffffffffffffffffffffff168152602001908152602001600020549050818110156110c4576040517f08c379a00000000000000000000000000000000000000000000000000000000081526004016110bb90611a2f565b60405180910390fd5b8181036000808673ffffffffffffffffffffffffffffffffffffffff1673ffffffffffffffffffffffffffffffffffffffff16815260200190815260200160002081905550816000808573ffffffffffffffffffffffffffffffffffffffff1673ffffffffffffffffffffffffffffffffffffffff16815260200190815260200160002060008282546111579190611b61565b925050819055508273ffffffffffffffffffffffffffffffffffffffff168473ffffffffffffffffffffffffffffffffffffffff167fddf252ad1be2c89b69c2b068fc378daa952ba7f163c4a11628f55a4df523b3ef846040516111bb9190611b0f565b60405180910390a36111ce8484846115d6565b50505050565b600073ffffffffffffffffffffffffffffffffffffffff168273ffffffffffffffffffffffffffffffffffffffff161415611244576040517f08c379a000000000000000000000000000000000000000000000000000000000815260040161123b90611aef565b60405180910390fd5b611250600083836115d1565b80600260008282546112629190611b61565b92505081905550806000808473ffffffffffffffffffffffffffffffffffffffff1673ffffffffffffffffffffffffffffffffffffffff16815260200190815260200160002060008282546112b79190611b61565b925050819055508173ffffffffffffffffffffffffffffffffffffffff16600073ffffffffffffffffffffffffffffffffffffffff167fddf252ad1be2c89b69c2b068fc378daa952ba7f163c4a11628f55a4df523b3ef8360405161131c9190611b0f565b60405180910390a3611330600083836115d6565b5050565b600073ffffffffffffffffffffffffffffffffffffffff168273ffffffffffffffffffffffffffffffffffffffff1614156113a4576040517f08c379a000000000000000000000000000000000000000000000000000000000815260040161139b90611a6f565b60405180910390fd5b6113b0826000836115d1565b60008060008473ffffffffffffffffffffffffffffffffffffffff1673ffffffffffffffffffffffffffffffffffffffff16815260200190815260200160002054905081811015611436576040517f08c379a000000000000000000000000000000000000000000000000000000000815260040161142d906119af565b60405180910390fd5b8181036000808573ffffffffffffffffffffffffffffffffffffffff1673ffffffffffffffffffffffffffffffffffffffff16815260200190815260200160002081905550816002600082825461148d9190611bb7565b92505081905550600073ffffffffffffffffffffffffffffffffffffffff168373ffffffffffffffffffffffffffffffffffffffff167fddf252ad1be2c89b69c2b068fc378daa952ba7f163c4a11628f55a4df523b3ef846040516114f29190611b0f565b60405180910390a3611506836000846115d6565b505050565b6000600560009054906101000a900473ffffffffffffffffffffffffffffffffffffffff16905081600560006101000a81548173ffffffffffffffffffffffffffffffffffffffff021916908373ffffffffffffffffffffffffffffffffffffffff1602179055508173ffffffffffffffffffffffffffffffffffffffff168173ffffffffffffffffffffffffffffffffffffffff167f8be0079c531659141344cd1fd0a4f28419497f9722a3daafe3b4186f6b6457e060405160405180910390a35050565b505050565b505050565b6000813590506115ea81612056565b92915050565b6000813590506115ff8161206d565b92915050565b60006020828403121561161757600080fd5b6000611625848285016115db565b91505092915050565b6000806040838503121561164157600080fd5b600061164f858286016115db565b9250506020611660858286016115db565b9150509250929050565b60008060006060848603121561167f57600080fd5b600061168d868287016115db565b935050602061169e868287016115db565b92505060406116af868287016115f0565b9150509250925092565b600080604083850312156116cc57600080fd5b60006116da858286016115db565b92505060206116eb858286016115f0565b9150509250929050565b60006020828403121561170757600080fd5b6000611715848285016115f0565b91505092915050565b61172781611beb565b82525050565b61173681611bfd565b82525050565b600061174782611b45565b6117518185611b50565b9350611761818560208601611c40565b61176a81611d03565b840191505092915050565b6000611782602383611b50565b915061178d82611d14565b604082019050919050565b60006117a5602283611b50565b91506117b082611d63565b604082019050919050565b60006117c8602683611b50565b91506117d382611db2565b604082019050919050565b60006117eb602283611b50565b91506117f682611e01565b604082019050919050565b600061180e601d83611b50565b915061181982611e50565b602082019050919050565b6000611831602683611b50565b915061183c82611e79565b604082019050919050565b6000611854602083611b50565b915061185f82611ec8565b602082019050919050565b6000611877602183611b50565b915061188282611ef1565b604082019050919050565b600061189a602583611b50565b91506118a582611f40565b604082019050919050565b60006118bd602483611b50565b91506118c882611f8f565b604082019050919050565b60006118e0602583611b50565b91506118eb82611fde565b604082019050919050565b6000611903601f83611b50565b915061190e8261202d565b602082019050919050565b61192281611c29565b82525050565b61193181611c33565b82525050565b600060208201905061194c600083018461171e565b92915050565b6000602082019050611967600083018461172d565b92915050565b60006020820190508181036000830152611987818461173c565b905092915050565b600060208201905081810360008301526119a881611775565b9050919050565b600060208201905081810360008301526119c881611798565b9050919050565b600060208201905081810360008301526119e8816117bb565b9050919050565b60006020820190508181036000830152611a08816117de565b9050919050565b60006020820190508181036000830152611a2881611801565b9050919050565b60006020820190508181036000830152611a4881611824565b9050919050565b60006020820190508181036000830152611a6881611847565b9050919050565b60006020820190508181036000830152611a888161186a565b9050919050565b60006020820190508181036000830152611aa88161188d565b9050919050565b60006020820190508181036000830152611ac8816118b0565b9050919050565b60006020820190508181036000830152611ae8816118d3565b9050919050565b60006020820190508181036000830152611b08816118f6565b9050919050565b6000602082019050611b246000830184611919565b92915050565b6000602082019050611b3f6000830184611928565b92915050565b600081519050919050565b600082825260208201905092915050565b6000611b6c82611c29565b9150611b7783611c29565b9250827fffffffffffffffffffffffffffffffffffffffffffffffffffffffffffffffff03821115611bac57611bab611ca5565b5b828201905092915050565b6000611bc282611c29565b9150611bcd83611c29565b925082821015611be057611bdf611ca5565b5b828203905092915050565b6000611bf682611c09565b9050919050565b60008115159050919050565b600073ffffffffffffffffffffffffffffffffffffffff82169050919050565b6000819050919050565b600060ff82169050919050565b60005b83811015611c5e578082015181840152602081019050611c43565b83811115611c6d576000848401525b50505050565b60006002820490506001821680611c8b57607f821691505b60208210811415611c9f57611c9e611cd4565b5b50919050565b7f4e487b7100000000000000000000000000000000000000000000000000000000600052601160045260246000fd5b7f4e487b7100000000000000000000000000000000000000000000000000000000600052602260045260246000fd5b6000601f19601f8301169050919050565b7f45524332303a207472616e7366657220746f20746865207a65726f206164647260008201527f6573730000000000000000000000000000000000000000000000000000000000602082015250565b7f45524332303a206275726e20616d6f756e7420657863656564732062616c616e60008201527f6365000000000000000000000000000000000000000000000000000000000000602082015250565b7f4f776e61626c653a206e6577206f776e657220697320746865207a65726f206160008201527f6464726573730000000000000000000000000000000000000000000000000000602082015250565b7f45524332303a20617070726f766520746f20746865207a65726f20616464726560008201527f7373000000000000000000000000000000000000000000000000000000000000602082015250565b7f45524332303a20696e73756666696369656e7420616c6c6f77616e6365000000600082015250565b7f45524332303a207472616e7366657220616d6f756e742065786365656473206260008201527f616c616e63650000000000000000000000000000000000000000000000000000602082015250565b7f4f776e61626c653a2063616c6c6572206973206e6f7420746865206f776e6572600082015250565b7f45524332303a206275726e2066726f6d20746865207a65726f2061646472657360008201527f7300000000000000000000000000000000000000000000000000000000000000602082015250565b7f45524332303a207472616e736665722066726f6d20746865207a65726f20616460008201527f6472657373000000000000000000000000000000000000000000000000000000602082015250565b7f45524332303a20617070726f76652066726f6d20746865207a65726f2061646460008201527f7265737300000000000000000000000000000000000000000000000000000000602082015250565b7f45524332303a2064656372656173656420616c6c6f77616e63652062656c6f7760008201527f207a65726f000000000000000000000000000000000000000000000000000000602082015250565b7f45524332303a206d696e7420746f20746865207a65726f206164647265737300600082015250565b61205f81611beb565b811461206a57600080fd5b50565b61207681611c29565b811461208157600080fd5b5056fea2646970667358221220ccff80407ec7bf81ae9c4cbeadea9a31e725e2b3769badafcb2d053c9d76c00e64736f6c63430008040033",
  "linkReferences": {},
  "deployedLinkReferences": {}
}