{
  "_format": "hh-sol-artifact-1",
  "contractName": "AtlantisDistributor",
  "sourceName": "contracts/AtlantisDistributor.sol",
  "abi": [
    {
      "inputs": [],
      "stateMutability": "nonpayable",
      "type": "constructor"
    },
    {
      "inputs": [],
      "name": "NotAuthorised",
      "type": "error"
    },
    {
      "anonymous": false,
      "inputs": [
        {
          "indexed": true,
          "internalType": "address",
          "name": "admin",
          "type": "address"
        },
        {
          "indexed": false,
          "internalType": "address",
          "name": "newAdmin",
          "type": "address"
        }
      ],
      "name": "AddAdmin",
      "type": "event"
    },
    {
      "anonymous": false,
      "inputs": [
        {
          "indexed": false,
          "internalType": "uint256",
          "name": "numberOfReceivers",
          "type": "uint256"
        },
        {
          "indexed": false,
          "internalType": "uint256",
          "name": "amount",
          "type": "uint256"
        },
        {
          "indexed": false,
          "internalType": "uint256",
          "name": "time",
          "type": "uint256"
        },
        {
          "indexed": false,
          "internalType": "address",
          "name": "admin",
          "type": "address"
        }
      ],
      "name": "Distribution",
      "type": "event"
    },
    {
      "anonymous": false,
      "inputs": [
        {
          "indexed": true,
          "internalType": "address",
          "name": "admin",
          "type": "address"
        },
        {
          "indexed": false,
          "internalType": "address",
          "name": "removedAdmin",
          "type": "address"
        }
      ],
      "name": "RemoveAdmin",
      "type": "event"
    },
    {
      "anonymous": false,
      "inputs": [
        {
          "indexed": true,
          "internalType": "address",
          "name": "admin",
          "type": "address"
        },
        {
          "indexed": false,
          "internalType": "address",
          "name": "suggestedAdmin",
          "type": "address"
        },
        {
          "indexed": false,
          "internalType": "bytes16",
          "name": "action",
          "type": "bytes16"
        }
      ],
      "name": "SuggestAdmin",
      "type": "event"
    },
    {
      "inputs": [
        {
          "internalType": "address",
          "name": "_admin",
          "type": "address"
        }
      ],
      "name": "addAdmin",
      "outputs": [],
      "stateMutability": "nonpayable",
      "type": "function"
    },
    {
      "inputs": [
        {
          "internalType": "address",
          "name": "_atlantisToken",
          "type": "address"
        }
      ],
      "name": "addContractAddress",
      "outputs": [],
      "stateMutability": "nonpayable",
      "type": "function"
    },
    {
      "inputs": [
        {
          "internalType": "address",
          "name": "",
          "type": "address"
        }
      ],
      "name": "admins",
      "outputs": [
        {
          "internalType": "bool",
          "name": "",
          "type": "bool"
        }
      ],
      "stateMutability": "view",
      "type": "function"
    },
    {
      "inputs": [
        {
          "internalType": "address[]",
          "name": "_addresses",
          "type": "address[]"
        },
        {
          "internalType": "uint256[]",
          "name": "_amounts",
          "type": "uint256[]"
        }
      ],
      "name": "distributeToken",
      "outputs": [],
      "stateMutability": "nonpayable",
      "type": "function"
    },
    {
      "inputs": [
        {
          "internalType": "address",
          "name": "_receiver",
          "type": "address"
        }
      ],
      "name": "isReceiver",
      "outputs": [
        {
          "internalType": "bool",
          "name": "",
          "type": "bool"
        }
      ],
      "stateMutability": "view",
      "type": "function"
    },
    {
      "inputs": [],
      "name": "noOfAdmins",
      "outputs": [
        {
          "internalType": "uint8",
          "name": "",
          "type": "uint8"
        }
      ],
      "stateMutability": "view",
      "type": "function"
    },
    {
      "inputs": [
        {
          "internalType": "address",
          "name": "_admin",
          "type": "address"
        }
      ],
      "name": "removeAdmin",
      "outputs": [],
      "stateMutability": "nonpayable",
      "type": "function"
    },
    {
      "inputs": [
        {
          "internalType": "address",
          "name": "",
          "type": "address"
        }
      ],
      "name": "suggestAdminsRemoval",
      "outputs": [
        {
          "internalType": "uint8",
          "name": "votes",
          "type": "uint8"
        }
      ],
      "stateMutability": "view",
      "type": "function"
    },
    {
      "inputs": [
        {
          "internalType": "address",
          "name": "",
          "type": "address"
        }
      ],
      "name": "suggestNewAdmins",
      "outputs": [
        {
          "internalType": "uint8",
          "name": "votes",
          "type": "uint8"
        }
      ],
      "stateMutability": "view",
      "type": "function"
    },
    {
      "inputs": [],
      "name": "totalDistributed",
      "outputs": [
        {
          "internalType": "uint256",
          "name": "",
          "type": "uint256"
        }
      ],
      "stateMutability": "view",
      "type": "function"
    },
    {
      "inputs": [],
      "name": "totalReceivers",
      "outputs": [
        {
          "internalType": "uint256",
          "name": "",
          "type": "uint256"
        }
      ],
      "stateMutability": "view",
      "type": "function"
    }
  ],
  "bytecode": "0x60806040526000600455600060055534801561001a57600080fd5b5060016000803373ffffffffffffffffffffffffffffffffffffffff1673ffffffffffffffffffffffffffffffffffffffff16815260200190815260200160002060006101000a81548160ff021916908315150217905550611765806100816000396000f3fe608060405234801561001057600080fd5b50600436106100a95760003560e01c8063659de63b11610071578063659de63b1461017857806370480275146101945780639af0e1d1146101b0578063b11ce2db146101e0578063e6512a9d146101fc578063efca2eed1461021a576100a9565b80631785f53c146100ae578063392243e1146100ca578063429b62e5146100fa5780634a545fcf1461012a57806354ceb4df14610148575b600080fd5b6100c860048036038101906100c39190611021565b610238565b005b6100e460048036038101906100df9190611021565b610588565b6040516100f1919061127f565b60405180910390f35b610114600480360381019061010f9190611021565b6105de565b604051610121919061127f565b60405180910390f35b6101326105fe565b60405161013f919061139a565b60405180910390f35b610162600480360381019061015d9190611021565b610611565b60405161016f919061139a565b60405180910390f35b610192600480360381019061018d919061104a565b61063c565b005b6101ae60048036038101906101a99190611021565b610a84565b005b6101ca60048036038101906101c59190611021565b610df9565b6040516101d7919061139a565b60405180910390f35b6101fa60048036038101906101f59190611021565b610e24565b005b610204610ebf565b604051610211919061133a565b60405180910390f35b610222610ec5565b60405161022f919061133a565b60405180910390f35b6000803373ffffffffffffffffffffffffffffffffffffffff1673ffffffffffffffffffffffffffffffffffffffff16815260200190815260200160002060009054906101000a900460ff166102ba576040517f1648fd0100000000000000000000000000000000000000000000000000000000815260040160405180910390fd5b6000808273ffffffffffffffffffffffffffffffffffffffff1673ffffffffffffffffffffffffffffffffffffffff16815260200190815260200160002060009054906101000a900460ff16610345576040517f08c379a000000000000000000000000000000000000000000000000000000000815260040161033c9061129a565b60405180910390fd5b6001600660009054906101000a900460ff1660ff16141561039b576040517f08c379a0000000000000000000000000000000000000000000000000000000008152600401610392906112fa565b60405180910390fd5b6000600360003373ffffffffffffffffffffffffffffffffffffffff1673ffffffffffffffffffffffffffffffffffffffff168152602001908152602001600020905060018160010160003373ffffffffffffffffffffffffffffffffffffffff1673ffffffffffffffffffffffffffffffffffffffff16815260200190815260200160002060006101000a81548160ff02191690831515021790555060018160000160008282829054906101000a900460ff166104599190611499565b92506101000a81548160ff021916908360ff1602179055503373ffffffffffffffffffffffffffffffffffffffff167f8e8259062151e73a59c7c52d5e9b1e9dd434da7ccc85aebd9e9229a2d57aef8d836040516104b7919061122f565b60405180910390a2600360ff168160000160009054906101000a900460ff1660ff16106105845760008060008473ffffffffffffffffffffffffffffffffffffffff1673ffffffffffffffffffffffffffffffffffffffff16815260200190815260200160002060006101000a81548160ff0219169083151502179055503373ffffffffffffffffffffffffffffffffffffffff167f148da362aaafc6bbf0e0b77d62428bcd324bcf9785839aa07881d6c78d295df18360405161057b91906111ed565b60405180910390a25b5050565b6000600160008373ffffffffffffffffffffffffffffffffffffffff1673ffffffffffffffffffffffffffffffffffffffff16815260200190815260200160002060009054906101000a900460ff169050919050565b60006020528060005260406000206000915054906101000a900460ff1681565b600660009054906101000a900460ff1681565b60036020528060005260406000206000915090508060000160009054906101000a900460ff16905081565b6000803373ffffffffffffffffffffffffffffffffffffffff1673ffffffffffffffffffffffffffffffffffffffff16815260200190815260200160002060009054906101000a900460ff166106be576040517f1648fd0100000000000000000000000000000000000000000000000000000000815260040160405180910390fd5b60c882511115610703576040517f08c379a00000000000000000000000000000000000000000000000000000000081526004016106fa906112ba565b60405180910390fd5b600080600090505b8351811015610a4057600073ffffffffffffffffffffffffffffffffffffffff16848281518110610765577f4e487b7100000000000000000000000000000000000000000000000000000000600052603260045260246000fd5b602002602001015173ffffffffffffffffffffffffffffffffffffffff1614610a2d57600660019054906101000a900473ffffffffffffffffffffffffffffffffffffffff1673ffffffffffffffffffffffffffffffffffffffff166340c10f198583815181106107ff577f4e487b7100000000000000000000000000000000000000000000000000000000600052603260045260246000fd5b6020026020010151858481518110610840577f4e487b7100000000000000000000000000000000000000000000000000000000600052603260045260246000fd5b60200260200101516040518363ffffffff1660e01b8152600401610865929190611256565b600060405180830381600087803b15801561087f57600080fd5b505af1158015610893573d6000803e3d6000fd5b505050506108e08482815181106108d3577f4e487b7100000000000000000000000000000000000000000000000000000000600052603260045260246000fd5b6020026020010151610588565b61098a5760016005546108f39190611443565b600581905550600115156001600086848151811061093a577f4e487b7100000000000000000000000000000000000000000000000000000000600052603260045260246000fd5b602002602001015173ffffffffffffffffffffffffffffffffffffffff1673ffffffffffffffffffffffffffffffffffffffff16815260200190815260200160002060009054906101000a905050505b8281815181106109c3577f4e487b7100000000000000000000000000000000000000000000000000000000600052603260045260246000fd5b6020026020010151826109d69190611443565b9150828181518110610a11577f4e487b7100000000000000000000000000000000000000000000000000000000600052603260045260246000fd5b6020026020010151600454610a269190611443565b6004819055505b8080610a3890611556565b91505061070b565b507ff5fce361d34e5fabb5ae5087cf23414d10bb745a53f03aeefe87818576a58b558351824233604051610a779493929190611355565b60405180910390a1505050565b6000803373ffffffffffffffffffffffffffffffffffffffff1673ffffffffffffffffffffffffffffffffffffffff16815260200190815260200160002060009054906101000a900460ff16610b06576040517f1648fd0100000000000000000000000000000000000000000000000000000000815260040160405180910390fd5b6000808273ffffffffffffffffffffffffffffffffffffffff1673ffffffffffffffffffffffffffffffffffffffff16815260200190815260200160002060009054906101000a900460ff1615610b92576040517f08c379a0000000000000000000000000000000000000000000000000000000008152600401610b89906112da565b60405180910390fd5b600560ff16600660009054906101000a900460ff1660ff1610610bea576040517f08c379a0000000000000000000000000000000000000000000000000000000008152600401610be19061131a565b60405180910390fd5b6000600260003373ffffffffffffffffffffffffffffffffffffffff1673ffffffffffffffffffffffffffffffffffffffff168152602001908152602001600020905060018160010160003373ffffffffffffffffffffffffffffffffffffffff1673ffffffffffffffffffffffffffffffffffffffff16815260200190815260200160002060006101000a81548160ff02191690831515021790555060018160000160008282829054906101000a900460ff16610ca89190611499565b92506101000a81548160ff021916908360ff1602179055503373ffffffffffffffffffffffffffffffffffffffff167f8e8259062151e73a59c7c52d5e9b1e9dd434da7ccc85aebd9e9229a2d57aef8d83604051610d069190611208565b60405180910390a2600360ff168160000160009054906101000a900460ff1660ff16101580610d4a5750600360ff16600660009054906101000a900460ff1660ff16105b15610df55760016000808473ffffffffffffffffffffffffffffffffffffffff1673ffffffffffffffffffffffffffffffffffffffff16815260200190815260200160002060006101000a81548160ff0219169083151502179055503373ffffffffffffffffffffffffffffffffffffffff167f99ad91c72e4fcc0a37d0481b982aec5c0c78491d30d39e65338bec15fa9cc4b783604051610dec91906111ed565b60405180910390a25b5050565b60026020528060005260406000206000915090508060000160009054906101000a900460ff16905081565b80600660016101000a81548173ffffffffffffffffffffffffffffffffffffffff021916908373ffffffffffffffffffffffffffffffffffffffff16021790555060016000803373ffffffffffffffffffffffffffffffffffffffff1673ffffffffffffffffffffffffffffffffffffffff16815260200190815260200160002060006101000a81548160ff02191690831515021790555050565b60055481565b60045481565b6000610ede610ed9846113da565b6113b5565b90508083825260208201905082856020860282011115610efd57600080fd5b60005b85811015610f2d5781610f138882610fa3565b845260208401935060208301925050600181019050610f00565b5050509392505050565b6000610f4a610f4584611406565b6113b5565b90508083825260208201905082856020860282011115610f6957600080fd5b60005b85811015610f995781610f7f888261100c565b845260208401935060208301925050600181019050610f6c565b5050509392505050565b600081359050610fb281611701565b92915050565b600082601f830112610fc957600080fd5b8135610fd9848260208601610ecb565b91505092915050565b600082601f830112610ff357600080fd5b8135611003848260208601610f37565b91505092915050565b60008135905061101b81611718565b92915050565b60006020828403121561103357600080fd5b600061104184828501610fa3565b91505092915050565b6000806040838503121561105d57600080fd5b600083013567ffffffffffffffff81111561107757600080fd5b61108385828601610fb8565b925050602083013567ffffffffffffffff8111156110a057600080fd5b6110ac85828601610fe2565b9150509250929050565b6110bf816114d0565b82525050565b6110ce816114e2565b82525050565b60006110e1601183611432565b91506110ec8261160e565b602082019050919050565b6000611104602c83611432565b915061110f82611637565b604082019050919050565b6000611127601083611432565b915061113282611686565b602082019050919050565b7f6164640000000000000000000000000000000000000000000000000000000000815250565b7f72656d6f76650000000000000000000000000000000000000000000000000000815250565b6000611196602083611432565b91506111a1826116af565b602082019050919050565b60006111b9601c83611432565b91506111c4826116d8565b602082019050919050565b6111d88161150e565b82525050565b6111e781611518565b82525050565b600060208201905061120260008301846110b6565b92915050565b600060408201905061121d60008301846110b6565b6112296020830161113d565b92915050565b600060408201905061124460008301846110b6565b61125060208301611163565b92915050565b600060408201905061126b60008301856110b6565b61127860208301846111cf565b9392505050565b600060208201905061129460008301846110c5565b92915050565b600060208201905081810360008301526112b3816110d4565b9050919050565b600060208201905081810360008301526112d3816110f7565b9050919050565b600060208201905081810360008301526112f38161111a565b9050919050565b6000602082019050818103600083015261131381611189565b9050919050565b60006020820190508181036000830152611333816111ac565b9050919050565b600060208201905061134f60008301846111cf565b92915050565b600060808201905061136a60008301876111cf565b61137760208301866111cf565b61138460408301856111cf565b61139160608301846110b6565b95945050505050565b60006020820190506113af60008301846111de565b92915050565b60006113bf6113d0565b90506113cb8282611525565b919050565b6000604051905090565b600067ffffffffffffffff8211156113f5576113f46115ce565b5b602082029050602081019050919050565b600067ffffffffffffffff821115611421576114206115ce565b5b602082029050602081019050919050565b600082825260208201905092915050565b600061144e8261150e565b91506114598361150e565b9250827fffffffffffffffffffffffffffffffffffffffffffffffffffffffffffffffff0382111561148e5761148d61159f565b5b828201905092915050565b60006114a482611518565b91506114af83611518565b92508260ff038211156114c5576114c461159f565b5b828201905092915050565b60006114db826114ee565b9050919050565b60008115159050919050565b600073ffffffffffffffffffffffffffffffffffffffff82169050919050565b6000819050919050565b600060ff82169050919050565b61152e826115fd565b810181811067ffffffffffffffff8211171561154d5761154c6115ce565b5b80604052505050565b60006115618261150e565b91507fffffffffffffffffffffffffffffffffffffffffffffffffffffffffffffffff8214156115945761159361159f565b5b600182019050919050565b7f4e487b7100000000000000000000000000000000000000000000000000000000600052601160045260246000fd5b7f4e487b7100000000000000000000000000000000000000000000000000000000600052604160045260246000fd5b6000601f19601f8301169050919050565b7f416c726561647920616e2061646d696e2e000000000000000000000000000000600082015250565b7f43616e206e6f74206469737472696275746520746f206d6f7265207468616e2060008201527f323030206174206f6e63652e0000000000000000000000000000000000000000602082015250565b7f416c726561647920616e2061646d696e00000000000000000000000000000000600082015250565b7f52656163686564206d696e696d756d206e756d626572206f662061646d696e73600082015250565b7f52656163686564206d6178206e756d626572206f662061646d696e7300000000600082015250565b61170a816114d0565b811461171557600080fd5b50565b6117218161150e565b811461172c57600080fd5b5056fea26469706673582212200f0f80f58708ffb9d03512467a24d22672a56e97164666e7a119fd922568528f64736f6c63430008040033",
  "linkReferences": {},
  "deployedLinkReferences": {}
}